{"abi":[{"type":"function","name":"verify","inputs":[{"name":"proof","type":"bytes","internalType":"bytes"},{"name":"publicInputs","type":"bytes32[]","internalType":"bytes32[]"}],"outputs":[{"name":"","type":"bool","internalType":"bool"}],"stateMutability":"view"},{"type":"error","name":"ProofLengthWrong","inputs":[]},{"type":"error","name":"PublicInputsLengthWrong","inputs":[]},{"type":"error","name":"ShpleminiFailed","inputs":[]},{"type":"error","name":"SumcheckFailed","inputs":[]}],"bytecode":{"object":"0x60e0604052348015600f57600080fd5b50612000608052600d60a052604260c05260805160a05160c05161548561005d600039600061058601526000818161063401528181610c230152610cc10152600061052d01526154856000f3fe608060405234801561001057600080fd5b506004361061002b5760003560e01c8063ea50d0e414610030575b600080fd5b61004361003e36600461504d565b610057565b604051901515815260200160405180910390f35b60006100666101b86020615136565b8414610085576040516376ba560560e11b815260040160405180910390fd5b600061008f6101a3565b9050600061009d87876101b8565b604083015190915084146100c45760405163fa06659360e01b815260040160405180910390fd5b60006100dd828787866000015187604001516001610466565b905061012c868680806020026020016040519081016040528093929190818152602001838360200280828437600092019190915250508451606081015160809091015190925090506001610516565b815160a00152600061013e838361062b565b90508061015e576040516313f8744360e31b815260040160405180910390fd5b600061016b848685610732565b90508061018b576040516352ec174560e11b815260040160405180910390fd5b8180156101955750805b9a9950505050505050505050565b6101ab61491a565b6101b3610fbd565b905090565b6101c0614cd1565b6101d66101d160806000858761514d565b6118a2565b81526101ea6101d16101006080858761514d565b60208201526102026101d1610180610100858761514d565b604082015261021a6101d1610200610180858761514d565b60a08201526102326101d1610280610200858761514d565b60c082015261024a6101d1610300610280858761514d565b60608201526102626101d1610380610300858761514d565b60e082015261027a6101d1610400610380858761514d565b608082015261040060005b601c8110156103135760005b600881101561030a576102bd8684876102ab826020615177565b926102b89392919061514d565b611978565b84610100015183601c81106102d4576102d461518a565b602002015182600881106102ea576102ea61518a565b6020020181815250506020836103009190615177565b9250600101610291565b50600101610285565b5060005b6028811015610368576103318583866102ab826020615177565b83610120015182602881106103485761034861518a565b60200201818152505060208261035e9190615177565b9150600101610317565b5060005b6103786001601c6151a0565b8110156103ce5761039d858386610390826080615177565b926101d19392919061514d565b83610140015182601b81106103b4576103b461518a565b60200201526103c4608083615177565b915060010161036c565b5060005b601c811015610423576103ec8583866102ab826020615177565b83610160015182601c81106104035761040361518a565b6020020181815250506020826104199190615177565b91506001016103d2565b50610435848285610390826080615177565b610180830152610446816080615177565b9050610459848285610390826080615177565b6101a08301525092915050565b61046e614d8e565b600061047f888888888888876119d5565b908352905061048e8189611a5d565b602084019190915290506104a181611bfa565b604084019190915290506104b58882611c5d565b606084019190915290506104c98882611d34565b608084019190915290506104dd8882611dc2565b60a084019190915290506104f18882611f32565b60c084019190915290506105058882611fa6565b5060e0830152509695505050505050565b6000600180826105608661055b896105566105518a7f0000000000000000000000000000000000000000000000000000000000000000615177565b611ffe565b61201e565b612039565b9050600061057f8761057a8a6105566105518b6001615177565b612054565b905060005b7f00000000000000000000000000000000000000000000000000000000000000008110156106135760006105d08b83815181106105c3576105c361518a565b6020026020010151611ffe565b90506105e0866105568684612039565b95506105f0856105568584612039565b94506105fc848b612039565b9350610608838b612054565b925050600101610584565b5061061e8484612086565b9998505050505050505050565b6000806001815b7f000000000000000000000000000000000000000000000000000000000000000081101561070657600086610100015182601c81106106735761067361518a565b6020020151905060006106868286612095565b9050806106a6576040516313f8744360e31b815260040160405180910390fd5b6000876060015184601c81106106be576106be61518a565b602002015190506106cf83826120b3565b95506106f6886040015185601c81106106ea576106ea61518a565b60200201518683612267565b9450505050806001019050610632565b5060006107228661012001518660000151876020015185612293565b90508281145b9695505050505050565b60006107836040518061012001604052806000815260200160008152602001600081526020016000815260200160008152602001600081526020016000815260200160008152602001600081525090565b60006107928460a00151612302565b905061079c614e1c565b6107a4614e3b565b60e08601516107c4906107bf908560005b6020020151612054565b612367565b60a085015260e08601516107e4906107bf908560005b6020020151612039565b60c080860182905260a0860151908801516108039261055b919061201e565b845260a08601516108319061081790612367565b6105568660a0015161057a8a60c001518960c0015161201e565b602085015260018252610180880151610849906123d7565b8152600160608501819052600060808601525b602381116109035761087e6108748660000151612423565b866060015161201e565b8382604681106108905761089061518a565b602002015260808501516101208a01516108d3919061055b906108b46001866151a0565b602881106108c4576108c461518a565b6020020151886060015161201e565b8560800181815250506108ee8560600151886080015161201e565b60608601526108fc816151b3565b905061085c565b50600061091260236001615177565b90505b602881116109935761092d6108748660200151612423565b83826046811061093f5761093f61518a565b602002015260808501516101208a0151610963919061055b906108b46001866151a0565b85608001818152505061097e8560600151886080015161201e565b606086015261098c816151b3565b9050610915565b50606087015181600160200201526080870151816002602002015260a0870151816003602002015260c0870151816004602002015260e0870151816005602002015261010087015181600660200201526101208701518160076020020152610140870151816008602002015261016087015181600960200201526101a087015181600a602002015261018087015181600b60200201526101c087015181600c60200201526101e087015181600d602002015261020087015181600e602002015261022087015181600f60200201526102408701518160106020020152610260870151816011602002015261028087015181601260200201526102a087015181601360200201526102c087015181601460200201526102e08701518160156020020152610300870151816016602002015261032087015181601760200201526103408701518160186020020152610360870151816019602002015261038087015181601a60200201526103a087015181601b60200201528751610b14906123d7565b6103808201526020880151610b28906123d7565b6103a08201526040880151610b3c906123d7565b6103c08201526060880151610b50906123d7565b6103e08201526080880151610b64906123d7565b61040082015260e0880151610b78906123d7565b61042082015260a0880151610b8c906123d7565b61044082015260c0880151610ba0906123d7565b6104608201528751610bb1906123d7565b6104808201526020880151610bc5906123d7565b6104a08201526040880151610bd9906123d7565b6104c08201526060880151610bed906123d7565b6104e08201526080880151610c01906123d7565b610500820152606086015160808501516101608a0151600092610c47929091877f000000000000000000000000000000000000000000000000000000000000000061243d565b805160a0870151919250610c5a9161201e565b604086018190526101608a01515160c0890151610c8a929161055b91610c80919061201e565b8860c0015161201e565b604086015260c0870151610c9d9061255b565b606086015260005b610cb16001601c6151a0565b811015610eb5576000610ce560017f00000000000000000000000000000000000000000000000000000000000000006151a0565b821015905080610e5b57610d186107bf8a60e0015188856001610d089190615177565b601c81106107b5576107b561518a565b60a088015260e0890151610d46906107bf9088610d36866001615177565b601c81106107da576107da61518a565b60c0880152606087015160a0880151610d5f919061201e565b60e0880152606087015160c08a0151610d7b91610c809161201e565b6101008801819052610d9d90610d9090612423565b61055b8960e00151612423565b8583610dab60286001615177565b610db59190615177565b60468110610dc557610dc561518a565b60200201526101008701516101608c0151600091610e0291610de8866001615177565b601c8110610df857610df861518a565b602002015161201e565b9050610e1e8161055b8a60e0015187876001610de89190615177565b9050610e2e886040015182612039565b6040890152606088015160c08b0151610e5491610e4a9161201e565b8b60c0015161201e565b6060890152505b610e7f8b610140015183601b8110610e7557610e7561518a565b60200201516123d7565b8483610e8d60286001615177565b610e979190615177565b60468110610ea757610ea761518a565b602002015250600101610ca5565b5060408051808201909152600181526002602082015282610ed8601c6028615177565b60468110610ee857610ee861518a565b6020020152604085015183610eff601c6028615177565b60468110610f0f57610f0f61518a565b60200201526101a0890151600090610f26906123d7565b90508083610f36601c6028615177565b610f41906001615177565b60468110610f5157610f5161518a565b602002015260e088015184610f68601c6028615177565b610f73906001615177565b60468110610f8357610f8361518a565b60200201526000610f948486612567565b90506000610fa18361263a565b9050610fad82826126b2565b9c9b505050505050505050505050565b610fc561491a565b50604080516103c0810182526120008152600d602080830191909152604282840152825180840184527f061836e86302737e98150fc9cbfc581c71eccd35b9d8fe44e747952d27cb0fb981527f3013b34caa62aadd55336f65239fe7d6d59e385878c4e395019e49f6ae4a0db9818301526060830152825180840184527f1250324c6e74a8509b2a2c14a170d63d7392100a120390cbc6d38267bf537c4081527f2976636732d6f84e6258e59746861eded1503be45360b0c2e81f9c1e248226ac818301526080830152825180840184527f24c1a380c0acb4df57e939bf74f9125aa50694bfbf0b32f355bab1de66ae2ace81527f2021878e2a41855038494c713025c4f08e0cfcef35721c90a2985d55501c493c8183015260a0830152825180840184527f2fdbf13704f6f3c754bbcb75d8c20cc984892dc07347196d309a52e1f4c3963981527f077ff3dd43173c9af31792f3045a213051adb28a2e5252fddb66d880be2d6a528183015260c0830152825180840184527f2e152165daf3bd3a6141403db385e9234b4761d0a7a998b65cc57e5688d3d08281527f0ed49069124d5a28f31664aadbd204a888f836de63144830c764f69146f4bac08183015260e0830152825180840184527f03e892f0c235f5c96046aeab263bf3c56cf08882a37cf45b00a02394a085259a81527f26ab55d1acc47282b487ad870a880e6603880b1fbddfce7f64c650baedc4266b81830152610100830152825180840184527f28443ede99e7a9f88423e2479b959692d876adf6843120f44c4c0da62b45e1ba81527f0cfeb234fe3153a253617adfcf4164c9d1eacf9c56feb21ca1e432ff0e098e9481830152610120830152825180840184527f10c805f1d5e73ac1a932d5b9ec0c1a6f4c2268f4c922d2b16b728b45c6934af281527f1dd70bf0081f677690c22a1661b5d1cdfe4cd7353a4f23c3201a7c723c32da0581830152610140830152825180840184527f0bb2766f818ee2e9e8398edbf6bc26fd7e8c0d9b9cffa305c1e6f191a47382f781527f034549eabae0a47cf2fe721845cc748cfc80e50d61018daf3a41080bd20066a981830152610160830152825180840184527f0b3406e01f5705074352508214d4ad10386ff293e13054b001d387bb296ecc0781527f1c027c2b172c3cc0cc809dda0625be0bb3c2c5ac7cf503dfa1bb77a35f7ad23c81830152610180830152825180840184527f13e038ae971021f96556038c309207f8c0147633f8403407056d289dba08620681527f1f2376bef423271f0d7196a3fe2dac22024266e9a5e9bdd366d20ec8a39efe05818301526101a0830152825180840184527f1cffa609bcf444bbcc3c79fdc1e0b254ca045e22d8019ba31f997572331ee06181527f27e0092bac421b280254ff11e58c825eaf486b7b1dae4f0d53553a0efb9c0dab818301526101c0830152825180840184527f2e88be8f377d8c7097730df3912bcfaab931eb9eba914909c1750c6d30ebc5ae81527f033a258fe7baa2ad557fe232bd4d10defee1af7bfb5a78eaa13df49b993b956f818301526101e0830152825180840184527f0c75c7d8cfc944c86e479a0e75de6933aaf9cf01f160d38997f8fe463177cf1781527f077bf4c023c6e105f4a018d86e9235237ad0bb1ae09e0117d630804f96c4899581830152610200830152825180840184527f25a38d68e79e9c5b8bb725afc899a065fc544a8013d23b855061e9eb456f425e81527f2ac8f3ea8913e0fb24dd89800585c742c89d691a78c5c89dbb4bf2d354bcede381830152610220830152825180840184527f07771bb1b6bf6f41afdc8d041962e4bf2d232cf00770602c87b36fd615a7137681527f07d3f688fefcd35bac26f13525f2b8b99101c615fd0588b22ee16554de7ca85381830152610240830152825180840184527f1b10d71665556db588dab521bf3512e56cb8e3605adc9013cf7f756e665a7b0281527f1093895b0ef552b158601107fd507cb1b5223870c96cdd9ae66fb53a8bfa7c6581830152610260830152825180840184527f135876533f7541fec2aaecfb8ff49fdfbded84d61e36b7ba7744d7efbe5ee22481527f2b344e9c4c3d70171c01ccf1e51f74ab77de157e04ae3768622c521737083c7a81830152610280830152825180840184527f08f8371d0aca7316919256b15b8c80c1b020ca0b182d455756a8a8ce6ec5485a81527f2d1bcbffafdfccef9759bbdce53f4a3d733e9120b4c0488c147537ce37e94ad3818301526102a0830152825180840184527f159390e8ae720b5b3b9396d069c4a0e417a349547c1fba24688159b2d72c117581527f1824d57f1391a3087dd2c27b14ea448513513d1830e9a453d5feb1fe94010de9818301526102c0830152825180840184527f2916107d30f205a3aa1755ca854ff2b8e52f1bc33c448d32f6e4b2a888a0787c81527f139dd941d2540c65b416f7b6ac9c40d5510ab16845511a0e8d0438e938cc91c8818301526102e0830152825180840184527f131b4518419401524be5558cdd468f2d07bbe4fc166b29b766e92388539dc70f81527f242758649139d169b6b3d7cffebe92720fc8cfcf16bf4d76a063c233aeaf217481830152610300830152825180840184527f21bdeab7e410e237a54721486cd0d65dc83809d01fac7ed8af8b1546ae17a5a281527f07c4e66486177ef6d89105af023906f3b8abc99b116ad82821eb16649340cdeb81830152610320830152825180840184527f0b44c33651590eb7ac72634977132805312cd64207929bd48c941a262ee00a1e81527f0dd9185de5a89bd255162d01054cd3fcbdff9a1534a4619b33b1596147a42d2c81830152610340830152825180840184527f022d47261b13269a0fc0e4712290dfd4646ae798728abc78c12c9ff8ec94558381527f2480d6637f764a41c4e3b7fddf7d29666d3c6450e6f78d84985791f595b2b1d081830152610360830152825180840184526001815260028183015261038083015282518084019093527f2efd2a3d757ac3cfba832097b276a64ed2835d48f1972e1a66feb6c11622c93183527f029a0804e4e8b347afc6e5ad47c335e9296c595a4e49c1d8127b91ee3004b2ba908301526103a081019190915290565b6118aa614e75565b608082146118f55760405162461bcd60e51b81526020600482015260136024820152721a5b9d985b1a5908189e5d195cc81c1bda5b9d606a1b60448201526064015b60405180910390fd5b60408051608081019091528061190f60206000868861514d565b611918916151cc565b815260209081019061192e90604090868861514d565b611937916151cc565b815260200161194a60606040868861514d565b611953916151cc565b815260200161196660806060868861514d565b61196f916151cc565b90529392505050565b6000602082146119c15760405162461bcd60e51b815260206004820152601460248201527334b73b30b634b210313cba32b99039b1b0b630b960611b60448201526064016118ec565b6119ce61055183856151cc565b9392505050565b611a0e6040518060c001604052806000815260200160008152602001600081526020016000815260200160008152602001600081525090565b6000611a1e8989898989896128bc565b604086019190915260208501919091529083529250611a3d838a612ce7565b608085019190915260608401919091529199919850909650505050505050565b611a65614e9d565b6000611a6f614ebc565b84815260e0848101805151602080850191909152815181015160408086019190915282518101516060808701919091529251830151608080870191909152880180515160a0870152805183015160c08701528051820151948601949094529251909101516101008401529051611b0691611aeb918491016151ea565b60405160208183030381529060405280519060200120611ffe565b9150611b1182612db4565b6020850152835260015b611b2760026019615235565b811015611ba757611b4483604051602001611aeb91815260200190565b9250611b4f83612db4565b85611b5b846002615136565b60198110611b6b57611b6b61518a565b6020020186611b7b856002615136565b611b86906001615177565b60198110611b9657611b9661518a565b602002019190915252600101611b1b565b50611bbe82604051602001611aeb91815260200190565b91506000611bcb83612db4565b85611bd8600160196151a0565b60198110611be857611be861518a565b60200201919091525050509250929050565b611c02614edb565b6000805b601c811015611c5657611c2584604051602001611aeb91815260200190565b93506000611c3285612db4565b8584601c8110611c4457611c4461518a565b60200201919091525050600101611c06565b5090929050565b611c65614edb565b6000805b601c811015611d2b57611c7a614ebc565b84815260005b6008811015611ce45786610100015183601c8110611ca057611ca061518a565b60200201518160088110611cb657611cb661518a565b602002015182611cc7836001615177565b60098110611cd757611cd761518a565b6020020152600101611c80565b50611cf981604051602001611aeb91906151ea565b94506000611d0686612db4565b8685601c8110611d1857611d1861518a565b6020020191909152505050600101611c69565b50909391925050565b600080611d3f614efa565b83815260005b6028811015611d93578561012001518160288110611d6557611d6561518a565b602002015182611d76836001615177565b60298110611d8657611d8661518a565b6020020152600101611d45565b50611da881604051602001611aeb9190615249565b91506000611db583612db4565b5096929550919350505050565b600080611dcd614f19565b83815260005b611ddf6001601c6151a0565b811015611f1d5785610140015181601b8110611dfd57611dfd61518a565b60200201515182611e0f836004615136565b611e1a906001615177565b606d8110611e2a57611e2a61518a565b602002015261014086015181601b8110611e4657611e4661518a565b60200201516020015182826004611e5d9190615136565b611e68906002615177565b606d8110611e7857611e7861518a565b602002015261014086015181601b8110611e9457611e9461518a565b60200201516040015182611ea9836004615136565b611eb4906003615177565b606d8110611ec457611ec461518a565b602002015261014086015181601b8110611ee057611ee061518a565b60200201516060015182611ef5836004615136565b611f00906004615177565b606d8110611f1057611f1061518a565b6020020152600101611dd3565b50611da881604051602001611aeb919061527e565b600080611f3d614f38565b83815260005b601c811015611f915785610160015181601c8110611f6357611f6361518a565b602002015182611f74836001615177565b601d8110611f8457611f8461518a565b6020020152600101611f43565b50611da881604051602001611aeb91906152b3565b600080611fb1614f57565b83815261018085018051516020808401919091528151810151604080850191909152825181015160608086019190915292519092015160808401529051611da891611aeb918491016152e8565b60006120186000805160206154308339815191528361531c565b92915050565b60006000805160206154308339815191528284099392505050565b60006000805160206154308339815191528284089392505050565b600060008051602061543083398151915261207d836000805160206154308339815191526151a0565b84089392505050565b60006119ce8361055684612367565b815160009081906120a8908560016107da565b929092149392505050565b60408051610100810182527f30644e72e131a029b85045b68181585d2833e84879b9709143e1f593efffec5181526102d060208201527f30644e72e131a029b85045b68181585d2833e84879b9709143e1f593efffff1191810191909152609060608201527f30644e72e131a029b85045b68181585d2833e84879b9709143e1f593efffff71608082015260f060a08201527f30644e72e131a029b85045b68181585d2833e84879b9709143e1f593effffd3160c08201526113b060e08201526000906001825b600881101561219b57612191826105568784612054565b915060010161217a565b506121a4614f75565b60005b60088110156122075760008482600881106121c4576121c461518a565b602002015190506121d9816105568985612054565b90506121e481612367565b9050808383600881106121f9576121f961518a565b6020020152506001016121a7565b5060005b600881101561225c5760008782600881106122285761222861518a565b6020020151905061224581848460088110610df857610df861518a565b90506122518682612039565b95505060010161220b565b50610728848361201e565b60008061227e600161055b85610556896001612054565b905061228a848261201e565b95945050505050565b600061229d614f94565b6122a8868285612dee565b6122b486868386612f9f565b6122c08686838661318c565b6122cb868285613393565b6122d6868285613585565b6122e2868683866138ea565b6122ed8682856141a5565b6122f8868285614581565b6107288185614883565b61230a614edb565b81815260015b601c81101561236157612342826123286001846151a0565b601c81106123385761233861518a565b602002015161255b565b8282601c81106123545761235461518a565b6020020152600101612310565b50919050565b60008082905060006040516020815260208082015260206040820152826060820152600260008051602061543083398151915203608082015260008051602061543083398151915260a08201526020600060c08360055afa9050806123cb57600080fd5b50506000519392505050565b6040805180820190915260008082526020820152604051806040016040528060888460200151901b846000015117815260200160888460600151901b8460400151178152509050919050565b6000612018826000805160206154308339815191526151a0565b612445614edb565b601c5b80156125515760008461245c6001846151a0565b601c811061246c5761246c61518a565b602002015190506000886124816001856151a0565b601c81106124915761249161518a565b6020020151905060006124ed6124b16124aa858c61201e565b600261201e565b61057a8a6124c06001896151a0565b601c81106124d0576124d061518a565b60200201516105566124e78861055660018a612054565b87612054565b905061250e816105566107bf61250887610556600189612054565b86612039565b905085841161253d5797508780856125276001876151a0565b601c81106125375761253761518a565b60200201525b5050508061254a90615330565b9050612448565b5095945050505050565b6000612018828361201e565b60408051808201909152600080825260208201526000612589601c6028615177565b612594906002615177565b90506001604051855151604082015285516020015160608201528451608082015260408160606040840160075afa8216915060015b838110156126225760208102870160208202870181515160408501528151602001516060850152805160808501525050604080830160606040850160075afa8316925060408260808460065afa909216916001016125c9565b50805184526020810151602085015250505092915050565b60408051808201909152600080825260208201527f30644e72e131a029b85045b68181585d97816a916871ca8d3c208c16d87cfd4782602001517f30644e72e131a029b85045b68181585d97816a916871ca8d3c208c16d87cfd4761269f91906151a0565b6126a9919061531c565b60208301525090565b81516020808401518351848301516040805194850195909552938301919091527f198e9393920d483a7260bfb731fb5d25f1aa493335a9e71297e485b7aef312c260608301527f1800deef121f1e76426a00665e5c4479674322d4f75edadd46debd5cd992f6ed60808301527f090689d0585ff075ec9e99ad690c3395bc4b313370b38ef355acdadcd122975b60a08301527f12c85ea5db8c6deb4aab71808dcb408fe3d1e7690c43d37b4ce6cc0166fa7daa60c083015260e08201526101008101919091527f260e01b251f6f1c7e7ff4e580791dee8ea51d87a358e038b4efe30fac09383c16101208201527f0118c4d5b837bcc2bc89b5b398b5974e9f5944073b32078b7e231fec938883b06101408201527f04fc6369f7110fe3d25156c1bb9a72859cf2a04641f99ba4ee413c80da6a5fe46101608201527f22febda3c0c0632a56475b4214e5615e11e6dd3f96e6cea2854a87d4dacc5e5561018082015260009081906101a001604051602081830303815290604052905060008060086001600160a01b03168360405161284a9190615347565b600060405180830381855afa9150503d8060008114612885576040519150601f19603f3d011682016040523d82523d6000602084013e61288a565b606091505b50915091506000818060200190518101906128a59190615376565b90508280156128b15750805b979650505050505050565b6000808080806128cd876003615177565b6128d890600c615177565b67ffffffffffffffff8111156128f0576128f0615398565b604051908082528060200260200182016040528015612919578160200160208202803683370190505b5090508760001b816000815181106129335761293361518a565b6020026020010181815250508660001b816001815181106129565761295661518a565b6020026020010181815250508560001b816002815181106129795761297961518a565b60200260200101818152505060005b878110156129da578a8a828181106129a2576129a261518a565b90506020020135828260036129b79190615177565b815181106129c7576129c761518a565b6020908102919091010152600101612988565b508a5151816129ea896003615177565b815181106129fa576129fa61518a565b6020908102919091018101919091528b51015181612a19896003615177565b612a24906001615177565b81518110612a3457612a3461518a565b60209081029190910101528a516040015181612a51896003615177565b612a5c906002615177565b81518110612a6c57612a6c61518a565b60209081029190910101528a516060015181612a89896003615177565b612a94906003615177565b81518110612aa457612aa461518a565b6020908102919091018101919091528b01515181612ac3896003615177565b612ace906004615177565b81518110612ade57612ade61518a565b6020908102919091018101919091528b810151015181612aff896003615177565b612b0a906005615177565b81518110612b1a57612b1a61518a565b6020908102919091018101919091528b01516040015181612b3c896003615177565b612b47906006615177565b81518110612b5757612b5761518a565b6020908102919091018101919091528b01516060015181612b79896003615177565b612b84906007615177565b81518110612b9457612b9461518a565b602090810291909101015260408b01515181612bb1896003615177565b612bbc906008615177565b81518110612bcc57612bcc61518a565b60209081029190910181019190915260408c0151015181612bee896003615177565b612bf9906009615177565b81518110612c0957612c0961518a565b60209081029190910101526040808c0151015181612c28896003615177565b612c3390600a615177565b81518110612c4357612c4361518a565b602090810291909101015260408b01516060015181612c63896003615177565b612c6e90600b615177565b81518110612c7e57612c7e61518a565b602002602001018181525050612c9e81604051602001611aeb91906153ae565b9150612ca982612db4565b6040805160208101869052929750909550612cc49101611aeb565b91506000612cd183612db4565b50959c949b509499509097509195505050505050565b6000806000612cf4614fb3565b85815260a0858101805151602080850191909152815181015160408086019190915282518101516060808701919091529251830151608086015260c0808a0180515195870195909552845183015190860152835181015160e086015292518201516101008501528188018051516101208601528051820151610140860152805184015161016086015251909101516101808401529051612d9a91611aeb918491016153e4565b9150612da582612db4565b90979096509194509092505050565b600080826fffffffffffffffffffffffffffffffff8116608082901c612dd982611ffe565b9450612de481611ffe565b9350505050915091565b6000612dfb8460076148e9565b90507f183227397098d014dc2822db40c0ac2e9419f4243cdcb848a1f0fac9f80000006000612e5e612e58612e31856003612054565b610556612e4d612e428b60006148e9565b6105568c601c6148e9565b6105568b601b6148e9565b8361201e565b9050612edf612ed4612ebb612ea2612e898561055b612e7e8d60026148e9565b6105568e601b6148e9565b61055b612e978c60036148e9565b6105568d601c6148e9565b61055b612eb08b60046148e9565b6105568c601d6148e9565b61055b612ec98a60056148e9565b6105568b601e6148e9565b61055b8860016148e9565b9050612efe8161055b612ef3866001612054565b6105568a60266148e9565b9050612f0a818461201e565b9050612f16818561201e565b85525060009050612f52612f47612f3c612f3188601b6148e9565b61055b89601e6148e9565b61057a8860236148e9565b61055b8760006148e9565b9050612f6381610556846002612054565b9050612f7481610556846001612054565b9050612f80818361201e565b9050612f8c818461201e565b9050808460015b60200201525050505050565b6000806000612fd7612fcd612fb589601b6148e9565b61055b612fc38b60116148e9565b8a6060015161201e565b8760800151612039565b905061301081610556613006612fee8b601c6148e9565b61055b612ffc8d60126148e9565b8c6060015161201e565b8960800151612039565b9050613035816105566130066130278b601d6148e9565b61055b612ffc8d60136148e9565b905061305a8161055661300661304c8b601e6148e9565b61055b612ffc8d60146148e9565b92506000905061307f612fcd61307189601b6148e9565b61055b612fc38b600d6148e9565b90506130a4816105566130066130968b601c6148e9565b61055b612ffc8d600e6148e9565b90506130c9816105566130066130bb8b601d6148e9565b61055b612ffc8d600f6148e9565b90506130ee816105566130066130e08b601e6148e9565b61055b612ffc8d60106148e9565b91506000905061311661311061310589601f6148e9565b61055b8a60196148e9565b8461201e565b905061314b8161057a61314561312d8b60276148e9565b61055b61313b8d601a6148e9565b8c60a0015161201e565b8561201e565b9050613157818561201e565b604086015250600061317b61314561317089601a6148e9565b6105568a60276148e9565b606090950194909452505050505050565b6000806131eb6131d36131bb6131a66130068a60156148e9565b61055b6131b48b60166148e9565b8a5161201e565b61055b6131c98a60176148e9565b896020015161201e565b61055b6131e18960186148e9565b886040015161201e565b9150600061322361320a61320089601b6148e9565b8860800151612039565b61055b6132188a60036148e9565b6105568b60236148e9565b9050600061324e61323589601c6148e9565b61055b6132438b60006148e9565b6105568c60246148e9565b905060006132796132608a601d6148e9565b61055b61326e8c60016148e9565b6105568d60256148e9565b90506132b96132a16132938561055b868d6000015161201e565b61055b848c6020015161201e565b61055b6132af8c60046148e9565b8b6040015161201e565b935050505060006132ce6131108860206148e9565b905060006132e06131108960206148e9565b905060006133196133006132f58b60226148e9565b61055b8c60066148e9565b61057a61330e8c60226148e9565b6105568d60066148e9565b9050600061333e61333861332d878961201e565b6105568d60206148e9565b83612054565b905061334a818861201e565b9050600061337361336561335f8d60066148e9565b8761201e565b61057a61335f8e60216148e9565b60808a018390529050808960055b60200201525050505050505050505050565b60006133a160006001612054565b905060006133b160006002612054565b905060006133c160006003612054565b905060006133de6133d388601c6148e9565b61057a89601b6148e9565b905060006133fb6133f089601d6148e9565b61057a8a601c6148e9565b9050600061341861340d8a601e6148e9565b61057a8b601d6148e9565b9050600061343561342a8b60236148e9565b61057a8c601e6148e9565b90508361344681610556818b612039565b905061345681610556878a612039565b9050613466816105568789612039565b9050613477816105568d60086148e9565b9050613483818a61201e565b60c08b0152508261349881610556818b612039565b90506134a881610556868a612039565b90506134b8816105568689612039565b90506134c9816105568d60086148e9565b90506134d5818a61201e565b60e08b015250816134ea81610556818b612039565b90506134fa81610556858a612039565b905061350a816105568589612039565b905061351b816105568d60086148e9565b9050613527818a61201e565b6101008b0152508061353d81610556818b612039565b905061354d81610556848a612039565b905061355d816105568489612039565b905061356e816105568d60086148e9565b905061357a818a61201e565b9050808a6009613381565b6135c56040518060e00160405280600081526020016000815260200160008152602001600081526020016000815260200160008152602001600081525090565b6135d084601c6148e9565b81526135dd84601d6148e9565b60208201526135ed8460236148e9565b60408201526135fd8460266148e9565b606082015261360d8460256148e9565b608082015261361d8460246148e9565b60a0820152600061362f8560026148e9565b9050600061363e8660006148e9565b9050600061365484604001518560000151612054565b9050600061366a8560200151866020015161201e565b60608601519091508690600090613681908061201e565b905060006136a061369a89602001518a6060015161201e565b8861201e565b905060006136c06136b98a60a001518b60400151612039565b8a51612039565b90506136cf61335f828861201e565b90506136f66136f06136ea6136e48487612054565b88612054565b84612039565b83612039565b905061371e613713613708838761201e565b6105568f60096148e9565b61055660018a612054565b6101408c0152505050506020850151608086015160009161373e91612039565b9050600061375d61375388606001518861201e565b8860200151612054565b9050600061378361376e848761201e565b61055b6131458b60a001518c60000151612054565b90506137ab6137a0613795838c61201e565b6105568e60096148e9565b610556600189612054565b6101608b015250600091506137cd90506137c6836011612039565b875161201e565b905060006137db8384612039565b90506137e78182612039565b905060006137f683600961201e565b905061382061381a6131106138138b60a001518c60000151612039565b8b51612039565b82612054565b60c0890181905260009061383c9061369a90613708908d61201e565b905061384f8b600a602002015182612039565b6101408c0152505086516000925061387791506137c6906138709080612039565b8851612039565b905060006138b9613894836105568a600001518b60a00151612054565b602089015161057a906138a79080612039565b6105568b602001518c60800151612039565b90506138d689600b602002015161055b61369a613708858d61201e565b89600b602002015250505050505050505050565b613994604051806102c00160405280600081526020016000815260200160008152602001600081526020016000815260200160008152602001600081526020016000815260200160008152602001600081526020016000815260200160008152602001600081526020016000815260200160008152602001600081526020016000815260200160008152602001600081526020016000815260200160008152602001600081525090565b6139c96139b06139a587601b6148e9565b6105568860246148e9565b61055b6139be8860236148e9565b61055689601c6148e9565b8152613a0e613a036139ea6139df88601b6148e9565b61055689601e6148e9565b61055b6139f889601c6148e9565b6105568a601d6148e9565b61057a8760256148e9565b60408201819052613a2390600160441b61201e565b60408201819052613a399061057a8760266148e9565b604082018190528151613a4c9190612039565b60408201819052613a62906105568760056148e9565b60408201528051613a7790600160441b61201e565b808252613a979061055b613a8c8860236148e9565b6105568960246148e9565b80825260208201819052613ab39061057a612f3188601d6148e9565b60208201819052613ac9906105568760046148e9565b6020820152805160608201819052613ae69061055b87601e6148e9565b60608201819052613b0a9061057a613aff8860256148e9565b61055b8960266148e9565b60608201819052613b20906105568760006148e9565b8160600181815250506000613b4a613b4083602001518460400151612039565b8360600151612039565b9050613b5b816105568860036148e9565b9050613b73613b6b8760246148e9565b61400061201e565b60808301819052613b899061055b8860236148e9565b60808301819052613b9c9061400061201e565b60808301819052613bb29061055b88601d6148e9565b60808301819052613bc59061400061201e565b60808301819052613bdb9061055b88601c6148e9565b60808301819052613bee9061400061201e565b60808301819052613c049061055b88601b6148e9565b60808301819052613c1a9061057a88601e6148e9565b60808301819052613c30906105568860056148e9565b6080830152613c43613b6b8760256148e9565b60a08301819052613c599061055b8860246148e9565b60a08301819052613c6c9061400061201e565b60a08301819052613c829061055b8860236148e9565b60a08301819052613c959061400061201e565b60a08301819052613cab9061055b88601e6148e9565b60a08301819052613cbe9061400061201e565b60a08301819052613cd49061055b88601d6148e9565b60a08301819052613cea9061057a8860266148e9565b60a08301819052613d00906105568860006148e9565b60a083018190526080830151600091613d199190612039565b9050613d2a816105568960046148e9565b9050613d44613d3a88601d6148e9565b876040015161201e565b60c08401819052613d5d9061055b6131c98a601c6148e9565b60c08401819052613d7d9061055b613d768a601b6148e9565b895161201e565b60c08401819052613d939061055b8960016148e9565b60c0840181905260e08401819052613db09061057a89601e6148e9565b60c0840152613dc36133d38860236148e9565b610140840152613de2613dd78860266148e9565b61057a89601e6148e9565b610120840152610140830151613e0790613dfc908061201e565b846101400151612054565b610280840152610140830151613e4a90613e3f90613e389061055660016000805160206154308339815191526151a0565b6001612039565b84610120015161201e565b6101608401819052613e8190613e7390610556613e688b60026148e9565b6105568c60036148e9565b61055661335f8a600a6148e9565b6101a0860152610280830151613ea390613e7390610556613e688b60026148e9565b6101c086015260c0830151613ecb90610556613ec08a60026148e9565b6105568b60036148e9565b6101e08401526000613eeb613ee189601e6148e9565b8560e00151612054565b9050613efa61381a828361201e565b6101a0850152613f0e6131e18960256148e9565b6101008501819052613f329061055b613f288b60246148e9565b8a6020015161201e565b6101008501819052613f4c9061055b6131b48b60236148e9565b610100850152613f6b613f608960266148e9565b856101000151612054565b6101008501526000613f8161340d8a60256148e9565b9050613fd7613fb0612e58613e38886101400151600160008051602061543083398151915261055691906151a0565b610556613e38886101000151600160008051602061543083398151915261055691906151a0565b610180860152610100850151613ffc90613ff1908061201e565b866101000151612054565b6101c086015261018085015161402f9061401b906105568c60076148e9565b6105566140298c600a6148e9565b8961201e565b6101e088015261028085015161404e9061401b906105568c60076148e9565b6102008801526101c085015161406d9061401b906105568c60076148e9565b6102208801526101a0850151614088906105568b60076148e9565b6102008601526140a761409c8a60246148e9565b61057a8b601c6148e9565b6102208601526101408501516140e79061340d906140dc90613e389061055660016000805160206154308339815191526151a0565b87610220015161201e565b61024086018190526101e0860151610260870181905261411e9161055b906105566141138e60056148e9565b6105568f60026148e9565b610260860181905260c0860151614142919061055b906105566141138e60006148e9565b610260860181905261020086015161415a9190612039565b6102608601819052614170906136ea9086612039565b6102a0860181905261418a906105566140298c600a6148e9565b6102a0860181905287600c6020020152505050505050505050565b61422c60405180610220016040528060008152602001600081526020016000815260200160008152602001600081526020016000815260200160008152602001600081526020016000815260200160008152602001600081526020016000815260200160008152602001600081526020016000815260200160008152602001600081525090565b61424561423a85601b6148e9565b61055b8660026148e9565b815261426061425585601c6148e9565b61055b8660036148e9565b602082015261427e61427385601d6148e9565b61055b8660046148e9565b604082015261429c61429185601e6148e9565b61055b8660056148e9565b606082015280516142ce906142c7906142c0906142b9908061201e565b845161201e565b835161201e565b825161201e565b6080820152602081015161430c90614302906142f8906142ee908061201e565b846020015161201e565b836020015161201e565b826020015161201e565b60a0820152604081015161434a90614340906143369061432c908061201e565b846040015161201e565b836040015161201e565b826040015161201e565b60c082015260608101516143889061437e906143749061436a908061201e565b846060015161201e565b836060015161201e565b826060015161201e565b60e0820152608081015160a08201516143a19190612039565b61010082015260c081015160e08201516143bb9190612039565b61012082015260a08101516143df906143d49080612039565b826101200151612039565b61014082015260e0810151614403906143f89080612039565b826101000151612039565b6101608201526101208101516144199080612039565b6101e0820181905261443a9061442f9080612039565b826101600151612039565b6101e08201526101008101516144509080612039565b6101a08201819052614471906144669080612039565b826101400151612039565b6101a0820181905261016082015161448891612039565b6101808201526101408101516101e08201516144a49190612039565b6101c08201526144b8612e5885600b6148e9565b61020082018190526102408401516101808301516144e39261055b916105569061057a8a60236148e9565b8360126020020152614513836013602002015161055b836102000151610556856101a0015161057a8a60246148e9565b8360136020020152614543836014602002015161055b836102000151610556856101c0015161057a8a60256148e9565b8360146020020152614573836015602002015161055b836102000151610556856101e0015161057a8a60266148e9565b836015602002015250505050565b6145de60405180610160016040528060008152602001600081526020016000815260200160008152602001600081526020016000815260200160008152602001600081526020016000815260200160008152602001600081525090565b600060405180608001604052806146147f10dc6e9c006ea38b04b1e03b4bd9490c0d03f98929ca1d7fb56821fd19d3b6e7611ffe565b81526020016146427f0c28145b6a44df3e0149b3d0a30b3bb599df9756d4dd9b84a86b38cfb45a740b611ffe565b815260200161466f7e544b8338791518b2c7645a50392798b21f75bb60e3596170067d00141cac15611ffe565b815260200161469d7f222c01175718386f2e2e82eb122789e352e105a3b8fa852613bc534433ee428b611ffe565b905290506146ba6146af86601b6148e9565b61055b8760026148e9565b61012083018190526146ee906146e390613e3f906146d8908061201e565b85610120015161201e565b83610120015161201e565b82526146fb85601c6148e9565b602083015261470b85601d6148e9565b604083015261471b85601e6148e9565b60608301528151602083015161474391613b40916147399190612039565b8460400151612039565b608083015261475661311086600c6148e9565b61014083015281516147789061476e90836000610df8565b8360800151612039565b60a08301526147a4846016602002015161055b8461014001516105568660a0015161057a8b60236148e9565b6102c085015260208201516147bf9061476e90836001610df8565b60c08301526147eb846017602002015161055b8461014001516105568660c0015161057a8b60246148e9565b6102e085015260408201516148069061476e90836002610df8565b60e0830152614832846018602002015161055b8461014001516105568660e0015161057a8b60256148e9565b610300850152606082015161484d9061476e90836003610df8565b61010083015261487b846019602002015161055b84610140015161055686610100015161057a8b60266148e9565b846019612f93565b60006148908184816107da565b905060015b601a8110156148e2576148d88261055b8684601a81106148b7576148b761518a565b6020020151866148c86001876151a0565b60198110610df857610df861518a565b9150600101614895565b5092915050565b6000828260278111156148fe576148fe615419565b6028811061490e5761490e61518a565b60200201519392505050565b604051806103c00160405280600081526020016000815260200160008152602001614958604051806040016040528060008152602001600081525090565b815260200161497a604051806040016040528060008152602001600081525090565b815260200161499c604051806040016040528060008152602001600081525090565b81526020016149be604051806040016040528060008152602001600081525090565b81526020016149e0604051806040016040528060008152602001600081525090565b8152602001614a02604051806040016040528060008152602001600081525090565b8152602001614a24604051806040016040528060008152602001600081525090565b8152602001614a46604051806040016040528060008152602001600081525090565b8152602001614a68604051806040016040528060008152602001600081525090565b8152602001614a8a604051806040016040528060008152602001600081525090565b8152602001614aac604051806040016040528060008152602001600081525090565b8152602001614ace604051806040016040528060008152602001600081525090565b8152602001614af0604051806040016040528060008152602001600081525090565b8152602001614b12604051806040016040528060008152602001600081525090565b8152602001614b34604051806040016040528060008152602001600081525090565b8152602001614b56604051806040016040528060008152602001600081525090565b8152602001614b78604051806040016040528060008152602001600081525090565b8152602001614b9a604051806040016040528060008152602001600081525090565b8152602001614bbc604051806040016040528060008152602001600081525090565b8152602001614bde604051806040016040528060008152602001600081525090565b8152602001614c00604051806040016040528060008152602001600081525090565b8152602001614c22604051806040016040528060008152602001600081525090565b8152602001614c44604051806040016040528060008152602001600081525090565b8152602001614c66604051806040016040528060008152602001600081525090565b8152602001614c88604051806040016040528060008152602001600081525090565b8152602001614caa604051806040016040528060008152602001600081525090565b8152602001614ccc604051806040016040528060008152602001600081525090565b905290565b604051806101c00160405280614ce5614e75565b8152602001614cf2614e75565b8152602001614cff614e75565b8152602001614d0c614e75565b8152602001614d19614e75565b8152602001614d26614e75565b8152602001614d33614e75565b8152602001614d40614e75565b8152602001614d4d614fd2565b8152602001614d5a615000565b8152602001614d6761501f565b8152602001614d74614edb565b8152602001614d81614e75565b8152602001614ccc614e75565b604051806101000160405280614dd36040518060c001604052806000815260200160008152602001600081526020016000815260200160008152602001600081525090565b8152602001614de0614e9d565b8152602001614ded614edb565b8152602001614dfa614edb565b8152602001600081526020016000815260200160008152602001600081525090565b604051806108c001604052806046906020820280368337509192915050565b604051806108c001604052806046905b6040805180820190915260008082526020820152815260200190600190039081614e4b5790505090565b6040518060800160405280600081526020016000815260200160008152602001600081525090565b6040518061032001604052806019906020820280368337509192915050565b6040518061012001604052806009906020820280368337509192915050565b604051806103800160405280601c906020820280368337509192915050565b6040518061052001604052806029906020820280368337509192915050565b60405180610da00160405280606d906020820280368337509192915050565b604051806103a00160405280601d906020820280368337509192915050565b6040518060a001604052806005906020820280368337509192915050565b6040518061010001604052806008906020820280368337509192915050565b604051806103400160405280601a906020820280368337509192915050565b604051806101a00160405280600d906020820280368337509192915050565b604051806103800160405280601c905b614fea614f75565b815260200190600190039081614fe25790505090565b6040518061050001604052806028906020820280368337509192915050565b604051806103600160405280601b905b615037614e75565b81526020019060019003908161502f5790505090565b6000806000806040858703121561506357600080fd5b843567ffffffffffffffff81111561507a57600080fd5b8501601f8101871361508b57600080fd5b803567ffffffffffffffff8111156150a257600080fd5b8760208284010111156150b457600080fd5b60209182019550935085013567ffffffffffffffff8111156150d557600080fd5b8501601f810187136150e657600080fd5b803567ffffffffffffffff8111156150fd57600080fd5b8760208260051b840101111561511257600080fd5b949793965060200194505050565b634e487b7160e01b600052601160045260246000fd5b808202811582820484141761201857612018615120565b6000808585111561515d57600080fd5b8386111561516a57600080fd5b5050820193919092039150565b8082018082111561201857612018615120565b634e487b7160e01b600052603260045260246000fd5b8181038181111561201857612018615120565b6000600182016151c5576151c5615120565b5060010190565b8035602083101561201857600019602084900360031b1b1692915050565b60008183825b600981101561520f5781518352602092830192909101906001016151f0565b5050506101208201905092915050565b634e487b7160e01b600052601260045260246000fd5b6000826152445761524461521f565b500490565b60008183825b602981101561526e57815183526020928301929091019060010161524f565b5050506105208201905092915050565b60008183825b606d8110156152a3578151835260209283019290910190600101615284565b505050610da08201905092915050565b60008183825b601d8110156152d85781518352602092830192909101906001016152b9565b5050506103a08201905092915050565b60008183825b600581101561530d5781518352602092830192909101906001016152ee565b50505060a08201905092915050565b60008261532b5761532b61521f565b500690565b60008161533f5761533f615120565b506000190190565b6000825160005b81811015615368576020818601810151858301520161534e565b506000920191825250919050565b60006020828403121561538857600080fd5b815180151581146119ce57600080fd5b634e487b7160e01b600052604160045260246000fd5b8151600090829060208501835b828110156153d95781518452602093840193909101906001016153bb565b509195945050505050565b60008183825b600d8110156154095781518352602092830192909101906001016153ea565b5050506101a08201905092915050565b634e487b7160e01b600052602160045260246000fdfe30644e72e131a029b85045b68181585d2833e84879b9709143e1f593f0000001a2646970667358221220f1fd3a3a626ba977ede070f734b82b1281777a67064b397358b33a7a97e2f29964736f6c634300081c0033","linkReferences":{}},"methodIdentifiers":{"verify(bytes,bytes32[])":"ea50d0e4"},"id":24}