{"abi":[{"type":"constructor","inputs":[{"name":"_verifier","type":"address","internalType":"contract HonkVerifier"}],"stateMutability":"nonpayable"},{"type":"function","name":"verifier","inputs":[],"outputs":[{"name":"","type":"address","internalType":"contract HonkVerifier"}],"stateMutability":"view"},{"type":"function","name":"verifyZkJwtProof","inputs":[{"name":"proof","type":"bytes","internalType":"bytes"},{"name":"publicInputs","type":"bytes32[]","internalType":"bytes32[]"}],"outputs":[{"name":"","type":"bool","internalType":"bool"}],"stateMutability":"view"}],"bytecode":{"object":"0x6080604052348015600f57600080fd5b5060405161037a38038061037a833981016040819052602c916050565b600080546001600160a01b0319166001600160a01b0392909216919091179055607e565b600060208284031215606157600080fd5b81516001600160a01b0381168114607757600080fd5b9392505050565b6102ed8061008d6000396000f3fe608060405234801561001057600080fd5b50600436106100365760003560e01c80632b7ac3f31461003b5780639f652bc91461006b575b600080fd5b60005461004e906001600160a01b031681565b6040516001600160a01b0390911681526020015b60405180910390f35b61007e610079366004610157565b61008e565b6040519015158152602001610062565b60008054604051633a94343960e21b815282916001600160a01b03169063ea50d0e4906100c590899089908990899060040161022a565b602060405180830381865afa1580156100e2573d6000803e3d6000fd5b505050506040513d601f19601f82011682018060405250810190610106919061028e565b90508061014e5760405162461bcd60e51b8152602060048201526012602482015271141c9bdbd9881a5cc81b9bdd081d985b1a5960721b604482015260640160405180910390fd5b95945050505050565b6000806000806040858703121561016d57600080fd5b843567ffffffffffffffff81111561018457600080fd5b8501601f8101871361019557600080fd5b803567ffffffffffffffff8111156101ac57600080fd5b8760208284010111156101be57600080fd5b60209182019550935085013567ffffffffffffffff8111156101df57600080fd5b8501601f810187136101f057600080fd5b803567ffffffffffffffff81111561020757600080fd5b8760208260051b840101111561021c57600080fd5b949793965060200194505050565b6040815283604082015283856060830137600060608583018101829052601f19601f8701168301838103820160208501529081018490526001600160fb1b0384111561027557600080fd5b8360051b80866080840137016080019695505050505050565b6000602082840312156102a057600080fd5b815180151581146102b057600080fd5b939250505056fea2646970667358221220e005730ff00564b9967e605a75fada0675597396e3fdc052137b5f108eac7e4764736f6c634300081c0033","linkReferences":{}},"methodIdentifiers":{"verifier()":"2b7ac3f3","verifyZkJwtProof(bytes,bytes32[])":"9f652bc9"},"id":23}