{"abi":[{"type":"constructor","inputs":[{"name":"_zkJwtProofVerifier","type":"address","internalType":"contract ZkJwtProofVerifier"}],"stateMutability":"nonpayable"},{"type":"function","name":"getNullifiersByDomainAndWalletAddresses","inputs":[{"name":"domain","type":"string","internalType":"string"}],"outputs":[{"name":"_nullifierHash","type":"bytes32","internalType":"bytes32"}],"stateMutability":"view"},{"type":"function","name":"getPublicInputsOfAllProofs","inputs":[],"outputs":[{"name":"","type":"tuple[]","internalType":"struct DataType.PublicInput[]","components":[{"name":"domain","type":"string","internalType":"string"},{"name":"nullifierHash","type":"bytes32","internalType":"bytes32"},{"name":"walletAddress","type":"address","internalType":"address"},{"name":"createdAt","type":"string","internalType":"string"}]}],"stateMutability":"view"},{"type":"function","name":"getPublicInputsOfZkJwtProof","inputs":[{"name":"nullifierHash","type":"bytes32","internalType":"bytes32"}],"outputs":[{"name":"_publicInput","type":"tuple","internalType":"struct DataType.PublicInput","components":[{"name":"domain","type":"string","internalType":"string"},{"name":"nullifierHash","type":"bytes32","internalType":"bytes32"},{"name":"walletAddress","type":"address","internalType":"address"},{"name":"createdAt","type":"string","internalType":"string"}]}],"stateMutability":"view"},{"type":"function","name":"isNullifierAlreadyStoredOnChain","inputs":[{"name":"nullifierHash","type":"bytes32","internalType":"bytes32"}],"outputs":[{"name":"","type":"bool","internalType":"bool"}],"stateMutability":"view"},{"type":"function","name":"nullifiers","inputs":[{"name":"nullifierHash","type":"bytes32","internalType":"bytes32"}],"outputs":[{"name":"isNullified","type":"bool","internalType":"bool"}],"stateMutability":"view"},{"type":"function","name":"nullifiersByDomainAndWalletAddresses","inputs":[{"name":"domain","type":"string","internalType":"string"},{"name":"walletAddress","type":"address","internalType":"address"}],"outputs":[{"name":"nullifierHash","type":"bytes32","internalType":"bytes32"}],"stateMutability":"view"},{"type":"function","name":"publicInputsOfAllProofs","inputs":[{"name":"","type":"uint256","internalType":"uint256"}],"outputs":[{"name":"domain","type":"string","internalType":"string"},{"name":"nullifierHash","type":"bytes32","internalType":"bytes32"},{"name":"walletAddress","type":"address","internalType":"address"},{"name":"createdAt","type":"string","internalType":"string"}],"stateMutability":"view"},{"type":"function","name":"publicInputsOfZkJwtProofs","inputs":[{"name":"nullifierHash","type":"bytes32","internalType":"bytes32"}],"outputs":[{"name":"domain","type":"string","internalType":"string"},{"name":"nullifierHash","type":"bytes32","internalType":"bytes32"},{"name":"walletAddress","type":"address","internalType":"address"},{"name":"createdAt","type":"string","internalType":"string"}],"stateMutability":"view"},{"type":"function","name":"recordPublicInputsOfZkJwtProof","inputs":[{"name":"proof","type":"bytes","internalType":"bytes"},{"name":"publicInputs","type":"bytes32[]","internalType":"bytes32[]"},{"name":"separatedPublicInputs","type":"tuple","internalType":"struct DataType.PublicInput","components":[{"name":"domain","type":"string","internalType":"string"},{"name":"nullifierHash","type":"bytes32","internalType":"bytes32"},{"name":"walletAddress","type":"address","internalType":"address"},{"name":"createdAt","type":"string","internalType":"string"}]}],"outputs":[{"name":"","type":"bool","internalType":"bool"}],"stateMutability":"nonpayable"},{"type":"function","name":"zkJwtProofVerifier","inputs":[],"outputs":[{"name":"","type":"address","internalType":"contract ZkJwtProofVerifier"}],"stateMutability":"view"}],"bytecode":{"object":"0x6080604052348015600f57600080fd5b50604051611256380380611256833981016040819052602c916050565b600080546001600160a01b0319166001600160a01b0392909216919091179055607e565b600060208284031215606157600080fd5b81516001600160a01b0381168114607757600080fd5b9392505050565b6111c98061008d6000396000f3fe608060405234801561001057600080fd5b506004361061009e5760003560e01c806369f578d31161006657806369f578d314610173578063749386691461019657806376b84804146101a957806385071923146101d4578063f9710552146101f457600080fd5b80630a0732fc146100a35780630e3a0679146100cf5780631ba2f29b146100e4578063234b18f3146101075780632997e86b14610150575b600080fd5b6100b66100b1366004610b1f565b610207565b6040516100c69493929190610b88565b60405180910390f35b6100d7610365565b6040516100c69190610c21565b6100f76100f2366004610e3c565b610509565b60405190151581526020016100c6565b610142610115366004610f07565b81516020818401810180516003825292820194820194909420919093529091526000908152604090205481565b6040519081526020016100c6565b6100f761015e366004610b1f565b60026020526000908152604090205460ff1681565b6100f7610181366004610b1f565b60009081526002602052604090205460ff1690565b6101426101a4366004610f54565b6108d2565b6000546101bc906001600160a01b031681565b6040516001600160a01b0390911681526020016100c6565b6101e76101e2366004610b1f565b610906565b6040516100c69190610f90565b6100b6610202366004610b1f565b610b04565b6004818154811061021757600080fd5b906000526020600020906004020160009150905080600001805461023a90610faa565b80601f016020809104026020016040519081016040528092919081815260200182805461026690610faa565b80156102b35780601f10610288576101008083540402835291602001916102b3565b820191906000526020600020905b81548152906001019060200180831161029657829003601f168201915b5050505060018301546002840154600385018054949592946001600160a01b039092169350906102e290610faa565b80601f016020809104026020016040519081016040528092919081815260200182805461030e90610faa565b801561035b5780601f106103305761010080835404028352916020019161035b565b820191906000526020600020905b81548152906001019060200180831161033e57829003601f168201915b5050505050905084565b60606004805480602002602001604051908101604052809291908181526020016000905b8282101561050057838290600052602060002090600402016040518060800160405290816000820180546103bc90610faa565b80601f01602080910402602001604051908101604052809291908181526020018280546103e890610faa565b80156104355780601f1061040a57610100808354040283529160200191610435565b820191906000526020600020905b81548152906001019060200180831161041857829003601f168201915b50505091835250506001820154602082015260028201546001600160a01b0316604082015260038201805460609092019161046f90610faa565b80601f016020809104026020016040519081016040528092919081815260200182805461049b90610faa565b80156104e85780601f106104bd576101008083540402835291602001916104e8565b820191906000526020600020905b8154815290600101906020018083116104cb57829003601f168201915b50505050508152505081526020019060010190610389565b50505050905090565b60008054604051639f652bc960e01b815282916001600160a01b031690639f652bc990610540908a908a908a908a90600401610fe4565b602060405180830381865afa15801561055d573d6000803e3d6000fd5b505050506040513d601f19601f820116820180604052508101906105819190611048565b9050806105df5760405162461bcd60e51b815260206004820152602160248201527f4120676976656e205a4b2d4a57542070726f6f66206973206e6f742076616c696044820152601960fa1b60648201526084015b60405180910390fd5b82604001516001600160a01b0316336001600160a01b0316146106785760405162461bcd60e51b8152602060048201526044602482018190527f412063616c6c65722061646472657373206d757374206265206120676976656e908201527f207365706172617465645075626c6963496e707574732e77616c6c65744164646064820152637265737360e01b608482015260a4016105d6565b6106af6040518060800160405280606081526020016000801916815260200160006001600160a01b03168152602001606081525090565b835181526020808501518183018190526040808701516001600160a01b031681850152606080880151908501526000918252600190925220815182919081906106f890826110b9565b506020820151600182015560408201516002820180546001600160a01b0319166001600160a01b039092169190911790556060820151600382019061073d90826110b9565b50505060208082015160009081526002909152604090205460ff16156107e45760405162461bcd60e51b815260206004820152605060248201527f4120676976656e206e756c6c69666965724861736820697320616c726561647960448201527f20757365642c207768696368206d65616e73206120676976656e2070726f6f6660648201526f081a5cc8185b1c9958591e481d5cd95960821b608482015260a4016105d6565b6020808201805160009081526002909252604091829020805460ff191660011790555182519151909160039161081a9190611177565b9081526040805191829003602090810190922033600090815292528120919091556004805460018101825591819052825183929091027f8a35acfbc15ff81a39ae7d344fd709f28e8600b4aa8c65c6b64bfe7fe36bd19b0190819061087f90826110b9565b506020820151600182015560408201516002820180546001600160a01b0319166001600160a01b03909216919091179055606082015160038201906108c490826110b9565b505050505095945050505050565b60006003826040516108e49190611177565b9081526040805160209281900383019020336000908152925290205492915050565b61093d6040518060800160405280606081526020016000801916815260200160006001600160a01b03168152602001606081525090565b60008281526002602052604090205460ff1615156001146109a05760405162461bcd60e51b815260206004820181905260248201527f4120676976656e206e756c6c69666965724861736820697320696e76616c696460448201526064016105d6565b600082815260016020526040908190208151608081019092528054829082906109c890610faa565b80601f01602080910402602001604051908101604052809291908181526020018280546109f490610faa565b8015610a415780601f10610a1657610100808354040283529160200191610a41565b820191906000526020600020905b815481529060010190602001808311610a2457829003601f168201915b50505091835250506001820154602082015260028201546001600160a01b03166040820152600382018054606090920191610a7b90610faa565b80601f0160208091040260200160405190810160405280929190818152602001828054610aa790610faa565b8015610af45780601f10610ac957610100808354040283529160200191610af4565b820191906000526020600020905b815481529060010190602001808311610ad757829003601f168201915b5050505050815250509050919050565b60016020526000908152604090208054819061023a90610faa565b600060208284031215610b3157600080fd5b5035919050565b60005b83811015610b53578181015183820152602001610b3b565b50506000910152565b60008151808452610b74816020860160208601610b38565b601f01601f19169290920160200192915050565b608081526000610b9b6080830187610b5c565b602083018690526001600160a01b03851660408401528281036060840152610bc38185610b5c565b979650505050505050565b6000815160808452610be36080850182610b5c565b90506020830151602085015260018060a01b03604084015116604085015260608301518482036060860152610c188282610b5c565b95945050505050565b6000602082016020835280845180835260408501915060408160051b86010192506020860160005b82811015610c7a57603f19878603018452610c65858351610bce565b94506020938401939190910190600101610c49565b50929695505050505050565b60008083601f840112610c9857600080fd5b5081356001600160401b03811115610caf57600080fd5b6020830191508360208260051b8501011115610cca57600080fd5b9250929050565b634e487b7160e01b600052604160045260246000fd5b600082601f830112610cf857600080fd5b81356001600160401b03811115610d1157610d11610cd1565b604051601f8201601f19908116603f011681016001600160401b0381118282101715610d3f57610d3f610cd1565b604052818152838201602001851015610d5757600080fd5b816020850160208301376000918101602001919091529392505050565b80356001600160a01b0381168114610d8b57600080fd5b919050565b600060808284031215610da257600080fd5b604051608081016001600160401b0381118282101715610dc457610dc4610cd1565b60405290508082356001600160401b03811115610de057600080fd5b610dec85828601610ce7565b82525060208381013590820152610e0560408401610d74565b604082015260608301356001600160401b03811115610e2357600080fd5b610e2f85828601610ce7565b6060830152505092915050565b600080600080600060608688031215610e5457600080fd5b85356001600160401b03811115610e6a57600080fd5b8601601f81018813610e7b57600080fd5b80356001600160401b03811115610e9157600080fd5b886020828401011115610ea357600080fd5b6020918201965094508601356001600160401b03811115610ec357600080fd5b610ecf88828901610c86565b90945092505060408601356001600160401b03811115610eee57600080fd5b610efa88828901610d90565b9150509295509295909350565b60008060408385031215610f1a57600080fd5b82356001600160401b03811115610f3057600080fd5b610f3c85828601610ce7565b925050610f4b60208401610d74565b90509250929050565b600060208284031215610f6657600080fd5b81356001600160401b03811115610f7c57600080fd5b610f8884828501610ce7565b949350505050565b602081526000610fa36020830184610bce565b9392505050565b600181811c90821680610fbe57607f821691505b602082108103610fde57634e487b7160e01b600052602260045260246000fd5b50919050565b6040815283604082015283856060830137600060608583018101829052601f19601f8701168301838103820160208501529081018490526001600160fb1b0384111561102f57600080fd5b8360051b80866080840137016080019695505050505050565b60006020828403121561105a57600080fd5b81518015158114610fa357600080fd5b601f8211156110b457806000526020600020601f840160051c810160208510156110915750805b601f840160051c820191505b818110156110b1576000815560010161109d565b50505b505050565b81516001600160401b038111156110d2576110d2610cd1565b6110e6816110e08454610faa565b8461106a565b6020601f82116001811461111a57600083156111025750848201515b600019600385901b1c1916600184901b1784556110b1565b600084815260208120601f198516915b8281101561114a578785015182556020948501946001909201910161112a565b50848210156111685786840151600019600387901b60f8161c191681555b50505050600190811b01905550565b60008251611189818460208701610b38565b919091019291505056fea26469706673582212202c63bd600aeb02f1cc65df429598e22a4ef11878ffb832977234e29cfe02ba3c64736f6c634300081c0033","linkReferences":{}},"methodIdentifiers":{"getNullifiersByDomainAndWalletAddresses(string)":"74938669","getPublicInputsOfAllProofs()":"0e3a0679","getPublicInputsOfZkJwtProof(bytes32)":"85071923","isNullifierAlreadyStoredOnChain(bytes32)":"69f578d3","nullifiers(bytes32)":"2997e86b","nullifiersByDomainAndWalletAddresses(string,address)":"234b18f3","publicInputsOfAllProofs(uint256)":"0a0732fc","publicInputsOfZkJwtProofs(bytes32)":"f9710552","recordPublicInputsOfZkJwtProof(bytes,bytes32[],(string,bytes32,address,string))":"1ba2f29b","zkJwtProofVerifier()":"76b84804"},"id":22}